{
  "_format": "hh-sol-artifact-1",
  "contractName": "UmarPassportTraditional",
  "sourceName": "contracts/UmarPassportTraditional.sol",
  "abi": [
    {
      "inputs": [
        {
          "internalType": "address",
          "name": "initialOwner",
          "type": "address"
        }
      ],
      "stateMutability": "nonpayable",
      "type": "constructor"
    },
    {
      "inputs": [
        {
          "internalType": "address",
          "name": "sender",
          "type": "address"
        },
        {
          "internalType": "uint256",
          "name": "tokenId",
          "type": "uint256"
        },
        {
          "internalType": "address",
          "name": "owner",
          "type": "address"
        }
      ],
      "name": "ERC721IncorrectOwner",
      "type": "error"
    },
    {
      "inputs": [
        {
          "internalType": "address",
          "name": "operator",
          "type": "address"
        },
        {
          "internalType": "uint256",
          "name": "tokenId",
          "type": "uint256"
        }
      ],
      "name": "ERC721InsufficientApproval",
      "type": "error"
    },
    {
      "inputs": [
        {
          "internalType": "address",
          "name": "approver",
          "type": "address"
        }
      ],
      "name": "ERC721InvalidApprover",
      "type": "error"
    },
    {
      "inputs": [
        {
          "internalType": "address",
          "name": "operator",
          "type": "address"
        }
      ],
      "name": "ERC721InvalidOperator",
      "type": "error"
    },
    {
      "inputs": [
        {
          "internalType": "address",
          "name": "owner",
          "type": "address"
        }
      ],
      "name": "ERC721InvalidOwner",
      "type": "error"
    },
    {
      "inputs": [
        {
          "internalType": "address",
          "name": "receiver",
          "type": "address"
        }
      ],
      "name": "ERC721InvalidReceiver",
      "type": "error"
    },
    {
      "inputs": [
        {
          "internalType": "address",
          "name": "sender",
          "type": "address"
        }
      ],
      "name": "ERC721InvalidSender",
      "type": "error"
    },
    {
      "inputs": [
        {
          "internalType": "uint256",
          "name": "tokenId",
          "type": "uint256"
        }
      ],
      "name": "ERC721NonexistentToken",
      "type": "error"
    },
    {
      "inputs": [
        {
          "internalType": "address",
          "name": "owner",
          "type": "address"
        }
      ],
      "name": "OwnableInvalidOwner",
      "type": "error"
    },
    {
      "inputs": [
        {
          "internalType": "address",
          "name": "account",
          "type": "address"
        }
      ],
      "name": "OwnableUnauthorizedAccount",
      "type": "error"
    },
    {
      "anonymous": false,
      "inputs": [
        {
          "indexed": true,
          "internalType": "address",
          "name": "owner",
          "type": "address"
        },
        {
          "indexed": true,
          "internalType": "address",
          "name": "approved",
          "type": "address"
        },
        {
          "indexed": true,
          "internalType": "uint256",
          "name": "tokenId",
          "type": "uint256"
        }
      ],
      "name": "Approval",
      "type": "event"
    },
    {
      "anonymous": false,
      "inputs": [
        {
          "indexed": true,
          "internalType": "address",
          "name": "owner",
          "type": "address"
        },
        {
          "indexed": true,
          "internalType": "address",
          "name": "operator",
          "type": "address"
        },
        {
          "indexed": false,
          "internalType": "bool",
          "name": "approved",
          "type": "bool"
        }
      ],
      "name": "ApprovalForAll",
      "type": "event"
    },
    {
      "anonymous": false,
      "inputs": [
        {
          "indexed": false,
          "internalType": "uint256",
          "name": "_fromTokenId",
          "type": "uint256"
        },
        {
          "indexed": false,
          "internalType": "uint256",
          "name": "_toTokenId",
          "type": "uint256"
        }
      ],
      "name": "BatchMetadataUpdate",
      "type": "event"
    },
    {
      "anonymous": false,
      "inputs": [
        {
          "indexed": false,
          "internalType": "uint256",
          "name": "_tokenId",
          "type": "uint256"
        }
      ],
      "name": "MetadataUpdate",
      "type": "event"
    },
    {
      "anonymous": false,
      "inputs": [
        {
          "indexed": true,
          "internalType": "address",
          "name": "previousOwner",
          "type": "address"
        },
        {
          "indexed": true,
          "internalType": "address",
          "name": "newOwner",
          "type": "address"
        }
      ],
      "name": "OwnershipTransferred",
      "type": "event"
    },
    {
      "anonymous": false,
      "inputs": [
        {
          "indexed": true,
          "internalType": "address",
          "name": "from",
          "type": "address"
        },
        {
          "indexed": true,
          "internalType": "address",
          "name": "to",
          "type": "address"
        },
        {
          "indexed": true,
          "internalType": "uint256",
          "name": "tokenId",
          "type": "uint256"
        }
      ],
      "name": "Transfer",
      "type": "event"
    },
    {
      "inputs": [
        {
          "internalType": "address",
          "name": "to",
          "type": "address"
        },
        {
          "internalType": "uint256",
          "name": "tokenId",
          "type": "uint256"
        }
      ],
      "name": "approve",
      "outputs": [],
      "stateMutability": "nonpayable",
      "type": "function"
    },
    {
      "inputs": [
        {
          "internalType": "address",
          "name": "owner",
          "type": "address"
        }
      ],
      "name": "balanceOf",
      "outputs": [
        {
          "internalType": "uint256",
          "name": "",
          "type": "uint256"
        }
      ],
      "stateMutability": "view",
      "type": "function"
    },
    {
      "inputs": [
        {
          "internalType": "uint256",
          "name": "tokenId",
          "type": "uint256"
        }
      ],
      "name": "getApproved",
      "outputs": [
        {
          "internalType": "address",
          "name": "",
          "type": "address"
        }
      ],
      "stateMutability": "view",
      "type": "function"
    },
    {
      "inputs": [
        {
          "internalType": "address",
          "name": "owner",
          "type": "address"
        },
        {
          "internalType": "address",
          "name": "operator",
          "type": "address"
        }
      ],
      "name": "isApprovedForAll",
      "outputs": [
        {
          "internalType": "bool",
          "name": "",
          "type": "bool"
        }
      ],
      "stateMutability": "view",
      "type": "function"
    },
    {
      "inputs": [],
      "name": "name",
      "outputs": [
        {
          "internalType": "string",
          "name": "",
          "type": "string"
        }
      ],
      "stateMutability": "view",
      "type": "function"
    },
    {
      "inputs": [],
      "name": "nextTokenId",
      "outputs": [
        {
          "internalType": "uint256",
          "name": "",
          "type": "uint256"
        }
      ],
      "stateMutability": "view",
      "type": "function"
    },
    {
      "inputs": [],
      "name": "owner",
      "outputs": [
        {
          "internalType": "address",
          "name": "",
          "type": "address"
        }
      ],
      "stateMutability": "view",
      "type": "function"
    },
    {
      "inputs": [
        {
          "internalType": "uint256",
          "name": "tokenId",
          "type": "uint256"
        }
      ],
      "name": "ownerOf",
      "outputs": [
        {
          "internalType": "address",
          "name": "",
          "type": "address"
        }
      ],
      "stateMutability": "view",
      "type": "function"
    },
    {
      "inputs": [],
      "name": "renounceOwnership",
      "outputs": [],
      "stateMutability": "nonpayable",
      "type": "function"
    },
    {
      "inputs": [
        {
          "internalType": "address",
          "name": "to",
          "type": "address"
        },
        {
          "internalType": "string",
          "name": "uri",
          "type": "string"
        }
      ],
      "name": "safeMint",
      "outputs": [],
      "stateMutability": "nonpayable",
      "type": "function"
    },
    {
      "inputs": [
        {
          "internalType": "address",
          "name": "from",
          "type": "address"
        },
        {
          "internalType": "address",
          "name": "to",
          "type": "address"
        },
        {
          "internalType": "uint256",
          "name": "tokenId",
          "type": "uint256"
        }
      ],
      "name": "safeTransferFrom",
      "outputs": [],
      "stateMutability": "nonpayable",
      "type": "function"
    },
    {
      "inputs": [
        {
          "internalType": "address",
          "name": "from",
          "type": "address"
        },
        {
          "internalType": "address",
          "name": "to",
          "type": "address"
        },
        {
          "internalType": "uint256",
          "name": "tokenId",
          "type": "uint256"
        },
        {
          "internalType": "bytes",
          "name": "data",
          "type": "bytes"
        }
      ],
      "name": "safeTransferFrom",
      "outputs": [],
      "stateMutability": "nonpayable",
      "type": "function"
    },
    {
      "inputs": [
        {
          "internalType": "address",
          "name": "operator",
          "type": "address"
        },
        {
          "internalType": "bool",
          "name": "approved",
          "type": "bool"
        }
      ],
      "name": "setApprovalForAll",
      "outputs": [],
      "stateMutability": "nonpayable",
      "type": "function"
    },
    {
      "inputs": [
        {
          "internalType": "bytes4",
          "name": "interfaceId",
          "type": "bytes4"
        }
      ],
      "name": "supportsInterface",
      "outputs": [
        {
          "internalType": "bool",
          "name": "",
          "type": "bool"
        }
      ],
      "stateMutability": "view",
      "type": "function"
    },
    {
      "inputs": [],
      "name": "symbol",
      "outputs": [
        {
          "internalType": "string",
          "name": "",
          "type": "string"
        }
      ],
      "stateMutability": "view",
      "type": "function"
    },
    {
      "inputs": [
        {
          "internalType": "uint256",
          "name": "tokenId",
          "type": "uint256"
        }
      ],
      "name": "tokenURI",
      "outputs": [
        {
          "internalType": "string",
          "name": "",
          "type": "string"
        }
      ],
      "stateMutability": "view",
      "type": "function"
    },
    {
      "inputs": [
        {
          "internalType": "address",
          "name": "from",
          "type": "address"
        },
        {
          "internalType": "address",
          "name": "to",
          "type": "address"
        },
        {
          "internalType": "uint256",
          "name": "tokenId",
          "type": "uint256"
        }
      ],
      "name": "transferFrom",
      "outputs": [],
      "stateMutability": "nonpayable",
      "type": "function"
    },
    {
      "inputs": [
        {
          "internalType": "address",
          "name": "newOwner",
          "type": "address"
        }
      ],
      "name": "transferOwnership",
      "outputs": [],
      "stateMutability": "nonpayable",
      "type": "function"
    }
  ],
  "bytecode": "0x60806040523480156200001157600080fd5b506040516200173e3803806200173e83398101604081905262000034916200013e565b806040518060400160405280601781526020017f556d617250617373706f7274547261646974696f6e616c0000000000000000008152506040518060400160405280600381526020016215541560ea1b815250816000908162000098919062000215565b506001620000a7828262000215565b5050506001600160a01b038116620000d957604051631e4fbdf760e01b81526000600482015260240160405180910390fd5b620000e481620000ec565b5050620002e1565b600780546001600160a01b038381166001600160a01b0319831681179093556040519116919082907f8be0079c531659141344cd1fd0a4f28419497f9722a3daafe3b4186f6b6457e090600090a35050565b6000602082840312156200015157600080fd5b81516001600160a01b03811681146200016957600080fd5b9392505050565b634e487b7160e01b600052604160045260246000fd5b600181811c908216806200019b57607f821691505b602082108103620001bc57634e487b7160e01b600052602260045260246000fd5b50919050565b601f8211156200021057600081815260208120601f850160051c81016020861015620001eb5750805b601f850160051c820191505b818110156200020c57828155600101620001f7565b5050505b505050565b81516001600160401b0381111562000231576200023162000170565b620002498162000242845462000186565b84620001c2565b602080601f831160018114620002815760008415620002685750858301515b600019600386901b1c1916600185901b1785556200020c565b600085815260208120601f198616915b82811015620002b25788860151825594840194600190910190840162000291565b5085821015620002d15787850151600019600388901b60f8161c191681555b5050505050600190811b01905550565b61144d80620002f16000396000f3fe608060405234801561001057600080fd5b50600436106101165760003560e01c806375794a3c116100a2578063b88d4fde11610071578063b88d4fde1461022f578063c87b56dd14610242578063d204c45e14610255578063e985e9c514610268578063f2fde38b1461027b57600080fd5b806375794a3c146101fa5780638da5cb5b1461020357806395d89b4114610214578063a22cb4651461021c57600080fd5b806323b872dd116100e957806323b872dd1461019857806342842e0e146101ab5780636352211e146101be57806370a08231146101d1578063715018a6146101f257600080fd5b806301ffc9a71461011b57806306fdde0314610143578063081812fc14610158578063095ea7b314610183575b600080fd5b61012e610129366004610f10565b61028e565b60405190151581526020015b60405180910390f35b61014b61029f565b60405161013a9190610f7d565b61016b610166366004610f90565b610331565b6040516001600160a01b03909116815260200161013a565b610196610191366004610fc5565b61035a565b005b6101966101a6366004610fef565b610369565b6101966101b9366004610fef565b6103f9565b61016b6101cc366004610f90565b610419565b6101e46101df36600461102b565b610424565b60405190815260200161013a565b61019661046c565b6101e460085481565b6007546001600160a01b031661016b565b61014b610480565b61019661022a366004611046565b61048f565b61019661023d36600461110e565b61049a565b61014b610250366004610f90565b6104b1565b61019661026336600461118a565b6104bc565b61012e6102763660046111ec565b6104ef565b61019661028936600461102b565b61051d565b60006102998261055b565b92915050565b6060600080546102ae9061121f565b80601f01602080910402602001604051908101604052809291908181526020018280546102da9061121f565b80156103275780601f106102fc57610100808354040283529160200191610327565b820191906000526020600020905b81548152906001019060200180831161030a57829003601f168201915b5050505050905090565b600061033c82610580565b506000828152600460205260409020546001600160a01b0316610299565b6103658282336105b9565b5050565b6001600160a01b03821661039857604051633250574960e11b8152600060048201526024015b60405180910390fd5b60006103a58383336105c6565b9050836001600160a01b0316816001600160a01b0316146103f3576040516364283d7b60e01b81526001600160a01b038086166004830152602482018490528216604482015260640161038f565b50505050565b6104148383836040518060200160405280600081525061049a565b505050565b600061029982610580565b60006001600160a01b038216610450576040516322718ad960e21b81526000600482015260240161038f565b506001600160a01b031660009081526003602052604090205490565b6104746106bf565b61047e60006106ec565b565b6060600180546102ae9061121f565b61036533838361073e565b6104a5848484610369565b6103f3848484846107dd565b606061029982610906565b6104c46106bf565b60088054600091826104d583611259565b9190505590506104e58382610a17565b6104148183610a31565b6001600160a01b03918216600090815260056020908152604080832093909416825291909152205460ff1690565b6105256106bf565b6001600160a01b03811661054f57604051631e4fbdf760e01b81526000600482015260240161038f565b610558816106ec565b50565b60006001600160e01b03198216632483248360e11b1480610299575061029982610a81565b6000818152600260205260408120546001600160a01b03168061029957604051637e27328960e01b81526004810184905260240161038f565b6104148383836001610ad1565b6000828152600260205260408120546001600160a01b03908116908316156105f3576105f3818486610bd7565b6001600160a01b0381161561063157610610600085600080610ad1565b6001600160a01b038116600090815260036020526040902080546000190190555b6001600160a01b03851615610660576001600160a01b0385166000908152600360205260409020805460010190555b60008481526002602052604080822080546001600160a01b0319166001600160a01b0389811691821790925591518793918516917fddf252ad1be2c89b69c2b068fc378daa952ba7f163c4a11628f55a4df523b3ef91a4949350505050565b6007546001600160a01b0316331461047e5760405163118cdaa760e01b815233600482015260240161038f565b600780546001600160a01b038381166001600160a01b0319831681179093556040519116919082907f8be0079c531659141344cd1fd0a4f28419497f9722a3daafe3b4186f6b6457e090600090a35050565b6001600160a01b03821661077057604051630b61174360e31b81526001600160a01b038316600482015260240161038f565b6001600160a01b03838116600081815260056020908152604080832094871680845294825291829020805460ff191686151590811790915591519182527f17307eab39ab6107e8899845ad3d59bd9653f200f220920489ca2b5937696c31910160405180910390a3505050565b6001600160a01b0383163b156103f357604051630a85bd0160e11b81526001600160a01b0384169063150b7a029061081f903390889087908790600401611280565b6020604051808303816000875af192505050801561085a575060408051601f3d908101601f19168201909252610857918101906112bd565b60015b6108c3573d808015610888576040519150601f19603f3d011682016040523d82523d6000602084013e61088d565b606091505b5080516000036108bb57604051633250574960e11b81526001600160a01b038516600482015260240161038f565b805181602001fd5b6001600160e01b03198116630a85bd0160e11b146108ff57604051633250574960e11b81526001600160a01b038516600482015260240161038f565b5050505050565b606061091182610580565b506000828152600660205260408120805461092b9061121f565b80601f01602080910402602001604051908101604052809291908181526020018280546109579061121f565b80156109a45780601f10610979576101008083540402835291602001916109a4565b820191906000526020600020905b81548152906001019060200180831161098757829003601f168201915b5050505050905060006109c260408051602081019091526000815290565b905080516000036109d4575092915050565b815115610a065780826040516020016109ee9291906112da565b60405160208183030381529060405292505050919050565b610a0f84610c3b565b949350505050565b610365828260405180602001604052806000815250610cb0565b6000828152600660205260409020610a498282611357565b506040518281527ff8e1a15aba9398e019f0b49df1a4fde98ee17ae345cb5f6b5e2c27f5033e8ce79060200160405180910390a15050565b60006001600160e01b031982166380ac58cd60e01b1480610ab257506001600160e01b03198216635b5e139f60e01b145b8061029957506301ffc9a760e01b6001600160e01b0319831614610299565b8080610ae557506001600160a01b03821615155b15610ba7576000610af584610580565b90506001600160a01b03831615801590610b215750826001600160a01b0316816001600160a01b031614155b8015610b345750610b3281846104ef565b155b15610b5d5760405163a9fbf51f60e01b81526001600160a01b038416600482015260240161038f565b8115610ba55783856001600160a01b0316826001600160a01b03167f8c5be1e5ebec7d5bd14f71427d1e84f3dd0314c0f7b2291e5b200ac8c7c3b92560405160405180910390a45b505b5050600090815260046020526040902080546001600160a01b0319166001600160a01b0392909216919091179055565b610be2838383610cc7565b610414576001600160a01b038316610c1057604051637e27328960e01b81526004810182905260240161038f565b60405163177e802f60e01b81526001600160a01b03831660048201526024810182905260440161038f565b6060610c4682610580565b506000610c5e60408051602081019091526000815290565b90506000815111610c7e5760405180602001604052806000815250610ca9565b80610c8884610d2a565b604051602001610c999291906112da565b6040516020818303038152906040525b9392505050565b610cba8383610dbd565b61041460008484846107dd565b60006001600160a01b03831615801590610a0f5750826001600160a01b0316846001600160a01b03161480610d015750610d0184846104ef565b80610a0f5750506000908152600460205260409020546001600160a01b03908116911614919050565b60606000610d3783610e22565b600101905060008167ffffffffffffffff811115610d5757610d57611082565b6040519080825280601f01601f191660200182016040528015610d81576020820181803683370190505b5090508181016020015b600019016f181899199a1a9b1b9c1cb0b131b232b360811b600a86061a8153600a8504945084610d8b57509392505050565b6001600160a01b038216610de757604051633250574960e11b81526000600482015260240161038f565b6000610df5838360006105c6565b90506001600160a01b03811615610414576040516339e3563760e11b81526000600482015260240161038f565b60008072184f03e93ff9f4daa797ed6e38ed64bf6a1f0160401b8310610e615772184f03e93ff9f4daa797ed6e38ed64bf6a1f0160401b830492506040015b6d04ee2d6d415b85acef81000000008310610e8d576d04ee2d6d415b85acef8100000000830492506020015b662386f26fc100008310610eab57662386f26fc10000830492506010015b6305f5e1008310610ec3576305f5e100830492506008015b6127108310610ed757612710830492506004015b60648310610ee9576064830492506002015b600a83106102995760010192915050565b6001600160e01b03198116811461055857600080fd5b600060208284031215610f2257600080fd5b8135610ca981610efa565b60005b83811015610f48578181015183820152602001610f30565b50506000910152565b60008151808452610f69816020860160208601610f2d565b601f01601f19169290920160200192915050565b602081526000610ca96020830184610f51565b600060208284031215610fa257600080fd5b5035919050565b80356001600160a01b0381168114610fc057600080fd5b919050565b60008060408385031215610fd857600080fd5b610fe183610fa9565b946020939093013593505050565b60008060006060848603121561100457600080fd5b61100d84610fa9565b925061101b60208501610fa9565b9150604084013590509250925092565b60006020828403121561103d57600080fd5b610ca982610fa9565b6000806040838503121561105957600080fd5b61106283610fa9565b91506020830135801515811461107757600080fd5b809150509250929050565b634e487b7160e01b600052604160045260246000fd5b600067ffffffffffffffff808411156110b3576110b3611082565b604051601f8501601f19908116603f011681019082821181831017156110db576110db611082565b816040528093508581528686860111156110f457600080fd5b858560208301376000602087830101525050509392505050565b6000806000806080858703121561112457600080fd5b61112d85610fa9565b935061113b60208601610fa9565b925060408501359150606085013567ffffffffffffffff81111561115e57600080fd5b8501601f8101871361116f57600080fd5b61117e87823560208401611098565b91505092959194509250565b6000806040838503121561119d57600080fd5b6111a683610fa9565b9150602083013567ffffffffffffffff8111156111c257600080fd5b8301601f810185136111d357600080fd5b6111e285823560208401611098565b9150509250929050565b600080604083850312156111ff57600080fd5b61120883610fa9565b915061121660208401610fa9565b90509250929050565b600181811c9082168061123357607f821691505b60208210810361125357634e487b7160e01b600052602260045260246000fd5b50919050565b60006001820161127957634e487b7160e01b600052601160045260246000fd5b5060010190565b6001600160a01b03858116825284166020820152604081018390526080606082018190526000906112b390830184610f51565b9695505050505050565b6000602082840312156112cf57600080fd5b8151610ca981610efa565b600083516112ec818460208801610f2d565b835190830190611300818360208801610f2d565b01949350505050565b601f82111561041457600081815260208120601f850160051c810160208610156113305750805b601f850160051c820191505b8181101561134f5782815560010161133c565b505050505050565b815167ffffffffffffffff81111561137157611371611082565b6113858161137f845461121f565b84611309565b602080601f8311600181146113ba57600084156113a25750858301515b600019600386901b1c1916600185901b17855561134f565b600085815260208120601f198616915b828110156113e9578886015182559484019460019091019084016113ca565b50858210156114075787850151600019600388901b60f8161c191681555b5050505050600190811b0190555056fea2646970667358221220113e2a7b7a790121c05e99c4c0343edfa95ef050ea87f4fbd77c6406ef65994d64736f6c63430008140033",
  "linkReferences": {},
  "deployedLinkReferences": {}
}